{
  "contractName": "Voting",
  "abi": [
    {
      "constant": true,
      "inputs": [],
      "name": "candidatesCount",
      "outputs": [
        {
          "name": "",
          "type": "uint256"
        }
      ],
      "payable": false,
      "stateMutability": "view",
      "type": "function"
    },
    {
      "constant": true,
      "inputs": [
        {
          "name": "",
          "type": "uint256"
        }
      ],
      "name": "candidates",
      "outputs": [
        {
          "name": "id",
          "type": "uint256"
        },
        {
          "name": "votecount",
          "type": "uint256"
        },
        {
          "name": "name",
          "type": "string"
        }
      ],
      "payable": false,
      "stateMutability": "view",
      "type": "function"
    },
    {
      "constant": true,
      "inputs": [],
      "name": "candidate",
      "outputs": [
        {
          "name": "",
          "type": "string"
        }
      ],
      "payable": false,
      "stateMutability": "view",
      "type": "function"
    },
    {
      "inputs": [],
      "payable": false,
      "stateMutability": "nonpayable",
      "type": "constructor"
    }
  ],
  "bytecode": "0x608060405234801561001057600080fd5b5061005e6040805190810160405280600d81526020017f53696e6a6f6e2053616e746f73000000000000000000000000000000000000008152506100b0640100000000026401000000009004565b6100ab6040805190810160405280600f81526020017f5068617420446174204e677579656e00000000000000000000000000000000008152506100b0640100000000026401000000009004565b6101d2565b600260008154809291906001019190505550606060405190810160405280600254815260200160008152602001828152506001600060025481526020019081526020016000206000820151816000015560208201518160010155604082015181600201908051906020019061012692919061012d565b5090505050565b828054600181600116156101000203166002900490600052602060002090601f016020900481019282601f1061016e57805160ff191683800117855561019c565b8280016001018555821561019c579182015b8281111561019b578251825591602001919060010190610180565b5b5090506101a991906101ad565b5090565b6101cf91905b808211156101cb5760008160009055506001016101b3565b5090565b90565b61035d806101e16000396000f300608060405260043610610057576000357c0100000000000000000000000000000000000000000000000000000000900463ffffffff1680632d35a8a21461005c5780633477ee2e146100875780636c8381f81461013b575b600080fd5b34801561006857600080fd5b506100716101cb565b6040518082815260200191505060405180910390f35b34801561009357600080fd5b506100b2600480360381019080803590602001909291905050506101d1565b6040518084815260200183815260200180602001828103825283818151815260200191508051906020019080838360005b838110156100fe5780820151818401526020810190506100e3565b50505050905090810190601f16801561012b5780820380516001836020036101000a031916815260200191505b5094505050505060405180910390f35b34801561014757600080fd5b50610150610293565b6040518080602001828103825283818151815260200191508051906020019080838360005b83811015610190578082015181840152602081019050610175565b50505050905090810190601f1680156101bd5780820380516001836020036101000a031916815260200191505b509250505060405180910390f35b60025481565b6001602052806000526040600020600091509050806000015490806001015490806002018054600181600116156101000203166002900480601f0160208091040260200160405190810160405280929190818152602001828054600181600116156101000203166002900480156102895780601f1061025e57610100808354040283529160200191610289565b820191906000526020600020905b81548152906001019060200180831161026c57829003601f168201915b5050505050905083565b60008054600181600116156101000203166002900480601f0160208091040260200160405190810160405280929190818152602001828054600181600116156101000203166002900480156103295780601f106102fe57610100808354040283529160200191610329565b820191906000526020600020905b81548152906001019060200180831161030c57829003601f168201915b5050505050815600a165627a7a72305820f7ceb2cf5d83da2532c2654ba94acffbf99c6b60d4e3c6cdde09daefdfe06c240029",
  "source": "pragma solidity ^0.4.24;\r\n\r\ncontract Voting {\r\n  /* State variable candidate */\r\n  string public candidate;\r\n\r\n  /* Constructor */\r\n    constructor () public {\r\n      addCandidate(\"Sinjon Santos\");\r\n      addCandidate(\"Phat Dat Nguyen\");\r\n\r\n    }\r\n\r\n  /* Modeling a Candidate */\r\n  struct Candidate {\r\n    uint id;\r\n    uint votecount;\r\n    string name;\r\n  }\r\n\r\n/* Stores Candidates, interacts with data layer of blockchain\r\n  Key is unsigned integer, value is\r\n  candidate structure type */\r\n  mapping(uint => Candidate) public candidates;\r\n\r\n  /* Store Candidate count */\r\n  uint public candidatesCount;\r\n\r\n  /* Adds a Candidate to MAPPING with COUNT, _NAME, and 0 votes*/\r\n  function addCandidate (string _name) private {\r\n    candidatesCount++;\r\n    candidates[candidatesCount] = Candidate(candidatesCount, 0, _name);\r\n  }\r\n\r\n\r\n\r\n}\r\n",
  "sourcePath": "C:\\Users\\phatd\\blockchain\\votedapp\\contracts\\Voting.sol",
  "compiler": {
    "name": "solc",
    "version": "0.4.24+commit.e67f0147.Emscripten.clang"
  },
  "schemaVersion": "2.0.1",
  "updatedAt": "2018-11-04T10:23:16.056Z"
}